:020000040000FA
:06000000503090001828AA
:08000800C000030EC1000B193A
:100010007D200B118C1884208C101C18B2209C1889
:10002000B2209C19B220410E8300C00E400E090080
:100030000811061108100614091488108614891472
:100040008811861589150030C2000330C3000430C2
:10005000C600C7010330C800C901CA01A030CC00E6
:10006000FF3092000430C500C401472004308E00E8
:10007000A3308B008D141F30930044086B20C20006
:1000800044087120C30048087720C7003D289D160A
:100090001D12D9309F006430CB0063209F149F183D
:1000A0004F2844101E1844146430CB0063209F1462
:1000B0009F185828C4101E18C4141F109D124408FD
:1000C0006620C6000800CB0B6328080082070434B2
:1000D000033402340134820700340134023403341F
:1000E0000000820704340234013400340000820727
:1000F0000134023408340134000004308706420819
:10010000071943088E000800C50B08000430C5001D
:10011000C40AC60B08004A18A728C403C60ACC0B99
:1001200092281828C80B96280330C8008B1547085A
:100130009A000130C50049080C3C031CB02804306B
:100140004902031CB0284A140430C500B0284A10E4
:10015000C4018B110430C6000430C500A030CC00AF
:0A016000C9010800C90A9C0108004B
:02400E00A63ECC
:00000001FF
