:020000040000FA
:06000000503090001828AA
:08000800C000030EC1000B193A
:100010007D200B118C1884208C101C18AD209C188E
:10002000AD209C19AD20410E8300C00E400E09008A
:100030000811061108100614091488108614891472
:100040008811861589150030C2000330C3000430C2
:10005000C600C7010330C800C901CA010A30CC007C
:10006000FF3092000830C500C401472004308E00E4
:10007000A3308B008D141F30930044086B20C20006
:1000800044087120C30048087720C7003D289D160A
:100090001D12D9309F006430CB0063209F149F183D
:1000A0004F2844101E1844146430CB0063209F1462
:1000B0009F185828C4101E18C4141F109D124408FD
:1000C0006620C6000800CB0B6328080082070434B2
:1000D000033402340134820700340134023403341F
:1000E0000000820704340234013400340000820727
:1000F0000134023408340134000004308706420819
:10010000071943088E000800C50B08000830C50019
:10011000C40AC60B08004A18A428C403C60AC80BA0
:1001200093280330C8008B1547089A000130C5009A
:1001300049080C3C031CAB2804304902031CAB28C3
:100140004A140830C500AB284A10C4018B11043092
:10015000C6000830C500C9010800C90A9C01080092
:02400E00A63ECC
:00000001FF
